{
  "_format": "hh-sol-artifact-1",
  "contractName": "FileStorage",
  "sourceName": "contracts/FileManager.sol",
  "abi": [
    {
      "inputs": [],
      "stateMutability": "nonpayable",
      "type": "constructor"
    },
    {
      "anonymous": false,
      "inputs": [
        {
          "indexed": false,
          "internalType": "string",
          "name": "fileHash",
          "type": "string"
        },
        {
          "indexed": false,
          "internalType": "uint256",
          "name": "blockNumber",
          "type": "uint256"
        },
        {
          "indexed": false,
          "internalType": "uint256",
          "name": "timestamp",
          "type": "uint256"
        }
      ],
      "name": "FileAdded",
      "type": "event"
    },
    {
      "anonymous": false,
      "inputs": [
        {
          "indexed": false,
          "internalType": "string",
          "name": "data",
          "type": "string"
        }
      ],
      "name": "TestEvent",
      "type": "event"
    },
    {
      "inputs": [
        {
          "internalType": "address",
          "name": "_newManager",
          "type": "address"
        }
      ],
      "name": "changeManager",
      "outputs": [],
      "stateMutability": "nonpayable",
      "type": "function"
    },
    {
      "inputs": [
        {
          "internalType": "string",
          "name": "",
          "type": "string"
        }
      ],
      "name": "files",
      "outputs": [
        {
          "internalType": "uint256",
          "name": "userId",
          "type": "uint256"
        }
      ],
      "stateMutability": "view",
      "type": "function"
    },
    {
      "inputs": [],
      "name": "manager",
      "outputs": [
        {
          "internalType": "address",
          "name": "",
          "type": "address"
        }
      ],
      "stateMutability": "view",
      "type": "function"
    },
    {
      "inputs": [
        {
          "internalType": "string",
          "name": "_hash",
          "type": "string"
        },
        {
          "internalType": "uint256",
          "name": "_userId",
          "type": "uint256"
        }
      ],
      "name": "storeFile",
      "outputs": [],
      "stateMutability": "nonpayable",
      "type": "function"
    },
    {
      "inputs": [],
      "name": "testEvent",
      "outputs": [],
      "stateMutability": "nonpayable",
      "type": "function"
    }
  ],
  "bytecode": "0x608060405234801561001057600080fd5b50336000806101000a81548173ffffffffffffffffffffffffffffffffffffffff021916908373ffffffffffffffffffffffffffffffffffffffff160217905550610952806100606000396000f3fe608060405234801561001057600080fd5b50600436106100575760003560e01c8063481c6a751461005c5780634f9d719e1461007a57806359876de414610084578063a3fbbaae146100a0578063e7755761146100bc575b600080fd5b6100646100ec565b60405161007191906103c1565b60405180910390f35b610082610110565b005b61009e6004803603810190610099919061056c565b61016e565b005b6100ba60048036038101906100b591906105f4565b61027b565b005b6100d660048036038101906100d19190610621565b61034c565b6040516100e39190610679565b60405180910390f35b60008054906101000a900473ffffffffffffffffffffffffffffffffffffffff1681565b6000426040516020016101239190610758565b60405160208183030381529060405290507fe75028ff36bb6473da3731a30e1aeeae9988e2415dba2c4e91e0357955065fba816040516101639190610808565b60405180910390a150565b60008054906101000a900473ffffffffffffffffffffffffffffffffffffffff1673ffffffffffffffffffffffffffffffffffffffff163373ffffffffffffffffffffffffffffffffffffffff16146101fc576040517f08c379a00000000000000000000000000000000000000000000000000000000081526004016101f390610876565b60405180910390fd5b600060405180602001604052808381525090508060018460405161022091906108c7565b9081526020016040518091039020600082015181600001559050507fd4be2c740d1b62becfd2dda71b97a1cedeeb6aa7706d4667f2895b80801eb86683434260405161026e939291906108de565b60405180910390a1505050565b60008054906101000a900473ffffffffffffffffffffffffffffffffffffffff1673ffffffffffffffffffffffffffffffffffffffff163373ffffffffffffffffffffffffffffffffffffffff1614610309576040517f08c379a000000000000000000000000000000000000000000000000000000000815260040161030090610876565b60405180910390fd5b806000806101000a81548173ffffffffffffffffffffffffffffffffffffffff021916908373ffffffffffffffffffffffffffffffffffffffff16021790555050565b6001818051602081018201805184825260208301602085012081835280955050505050506000915090508060000154905081565b600073ffffffffffffffffffffffffffffffffffffffff82169050919050565b60006103ab82610380565b9050919050565b6103bb816103a0565b82525050565b60006020820190506103d660008301846103b2565b92915050565b6000604051905090565b600080fd5b600080fd5b600080fd5b600080fd5b6000601f19601f8301169050919050565b7f4e487b7100000000000000000000000000000000000000000000000000000000600052604160045260246000fd5b610443826103fa565b810181811067ffffffffffffffff821117156104625761046161040b565b5b80604052505050565b60006104756103dc565b9050610481828261043a565b919050565b600067ffffffffffffffff8211156104a1576104a061040b565b5b6104aa826103fa565b9050602081019050919050565b82818337600083830152505050565b60006104d96104d484610486565b61046b565b9050828152602081018484840111156104f5576104f46103f5565b5b6105008482856104b7565b509392505050565b600082601f83011261051d5761051c6103f0565b5b813561052d8482602086016104c6565b91505092915050565b6000819050919050565b61054981610536565b811461055457600080fd5b50565b60008135905061056681610540565b92915050565b60008060408385031215610583576105826103e6565b5b600083013567ffffffffffffffff8111156105a1576105a06103eb565b5b6105ad85828601610508565b92505060206105be85828601610557565b9150509250929050565b6105d1816103a0565b81146105dc57600080fd5b50565b6000813590506105ee816105c8565b92915050565b60006020828403121561060a576106096103e6565b5b6000610618848285016105df565b91505092915050565b600060208284031215610637576106366103e6565b5b600082013567ffffffffffffffff811115610655576106546103eb565b5b61066184828501610508565b91505092915050565b61067381610536565b82525050565b600060208201905061068e600083018461066a565b92915050565b600081905092915050565b7f48656c6c6f20576f726c64000000000000000000000000000000000000000000600082015250565b60006106d5600b83610694565b91506106e08261069f565b600b82019050919050565b7f2000000000000000000000000000000000000000000000000000000000000000600082015250565b6000610721600183610694565b915061072c826106eb565b600182019050919050565b6000819050919050565b61075261074d82610536565b610737565b82525050565b6000610763826106c8565b915061076e82610714565b915061077a8284610741565b60208201915081905092915050565b600081519050919050565b600082825260208201905092915050565b60005b838110156107c35780820151818401526020810190506107a8565b60008484015250505050565b60006107da82610789565b6107e48185610794565b93506107f48185602086016107a5565b6107fd816103fa565b840191505092915050565b6000602082019050818103600083015261082281846107cf565b905092915050565b7f43616c6c6572206973206e6f7420746865206d616e6167657200000000000000600082015250565b6000610860601983610794565b915061086b8261082a565b602082019050919050565b6000602082019050818103600083015261088f81610853565b9050919050565b60006108a182610789565b6108ab8185610694565b93506108bb8185602086016107a5565b80840191505092915050565b60006108d38284610896565b915081905092915050565b600060608201905081810360008301526108f881866107cf565b9050610907602083018561066a565b610914604083018461066a565b94935050505056fea264697066735822122048deba01c7660f91f501d3129a92b5f6aa55306d05ab4be60bb2aeea68022a8364736f6c63430008180033",
  "linkReferences": {},
  "deployedLinkReferences": {}
}